{
  "address": "0x5FbDB2315678afecb367f032d93F642f64180aa3",
  "abi": [
    {
      "inputs": [
        {
          "internalType": "string",
          "name": "name_",
          "type": "string"
        },
        {
          "internalType": "string",
          "name": "symbol_",
          "type": "string"
        }
      ],
      "stateMutability": "nonpayable",
      "type": "constructor"
    },
    {
      "anonymous": false,
      "inputs": [
        {
          "indexed": true,
          "internalType": "address",
          "name": "owner",
          "type": "address"
        },
        {
          "indexed": true,
          "internalType": "address",
          "name": "approved",
          "type": "address"
        },
        {
          "indexed": true,
          "internalType": "uint256",
          "name": "tokenId",
          "type": "uint256"
        }
      ],
      "name": "Approval",
      "type": "event"
    },
    {
      "anonymous": false,
      "inputs": [
        {
          "indexed": true,
          "internalType": "address",
          "name": "owner",
          "type": "address"
        },
        {
          "indexed": true,
          "internalType": "address",
          "name": "operator",
          "type": "address"
        },
        {
          "indexed": false,
          "internalType": "bool",
          "name": "approved",
          "type": "bool"
        }
      ],
      "name": "ApprovalForAll",
      "type": "event"
    },
    {
      "anonymous": false,
      "inputs": [
        {
          "indexed": true,
          "internalType": "address",
          "name": "previousOwner",
          "type": "address"
        },
        {
          "indexed": true,
          "internalType": "address",
          "name": "newOwner",
          "type": "address"
        }
      ],
      "name": "OwnershipTransferred",
      "type": "event"
    },
    {
      "anonymous": false,
      "inputs": [
        {
          "indexed": true,
          "internalType": "address",
          "name": "author",
          "type": "address"
        },
        {
          "indexed": true,
          "internalType": "uint256",
          "name": "contentId",
          "type": "uint256"
        }
      ],
      "name": "Register",
      "type": "event"
    },
    {
      "anonymous": false,
      "inputs": [
        {
          "indexed": true,
          "internalType": "uint256",
          "name": "contentId",
          "type": "uint256"
        },
        {
          "indexed": false,
          "internalType": "string",
          "name": "hash",
          "type": "string"
        }
      ],
      "name": "SetContentHash",
      "type": "event"
    },
    {
      "anonymous": false,
      "inputs": [
        {
          "indexed": true,
          "internalType": "uint256",
          "name": "contentId",
          "type": "uint256"
        },
        {
          "indexed": false,
          "internalType": "string",
          "name": "path",
          "type": "string"
        }
      ],
      "name": "SetIpfsPath",
      "type": "event"
    },
    {
      "anonymous": false,
      "inputs": [
        {
          "indexed": true,
          "internalType": "uint256",
          "name": "contentId",
          "type": "uint256"
        },
        {
          "indexed": false,
          "internalType": "uint256",
          "name": "price",
          "type": "uint256"
        }
      ],
      "name": "SetPrice",
      "type": "event"
    },
    {
      "anonymous": false,
      "inputs": [
        {
          "indexed": true,
          "internalType": "uint256",
          "name": "contentId",
          "type": "uint256"
        },
        {
          "indexed": false,
          "internalType": "uint256",
          "name": "royalty",
          "type": "uint256"
        },
        {
          "indexed": false,
          "internalType": "address",
          "name": "receiver",
          "type": "address"
        }
      ],
      "name": "SetRoyalty",
      "type": "event"
    },
    {
      "anonymous": false,
      "inputs": [
        {
          "indexed": true,
          "internalType": "address",
          "name": "from",
          "type": "address"
        },
        {
          "indexed": true,
          "internalType": "address",
          "name": "to",
          "type": "address"
        },
        {
          "indexed": true,
          "internalType": "uint256",
          "name": "tokenId",
          "type": "uint256"
        }
      ],
      "name": "Transfer",
      "type": "event"
    },
    {
      "inputs": [
        {
          "internalType": "address",
          "name": "to",
          "type": "address"
        },
        {
          "internalType": "uint256",
          "name": "tokenId",
          "type": "uint256"
        }
      ],
      "name": "approve",
      "outputs": [],
      "stateMutability": "nonpayable",
      "type": "function"
    },
    {
      "inputs": [
        {
          "internalType": "uint256",
          "name": "contentId",
          "type": "uint256"
        }
      ],
      "name": "authorOf",
      "outputs": [
        {
          "internalType": "address",
          "name": "",
          "type": "address"
        }
      ],
      "stateMutability": "view",
      "type": "function"
    },
    {
      "inputs": [
        {
          "internalType": "address",
          "name": "owner",
          "type": "address"
        }
      ],
      "name": "balanceOf",
      "outputs": [
        {
          "internalType": "uint256",
          "name": "",
          "type": "uint256"
        }
      ],
      "stateMutability": "view",
      "type": "function"
    },
    {
      "inputs": [],
      "name": "baseURIextended",
      "outputs": [
        {
          "internalType": "string",
          "name": "",
          "type": "string"
        }
      ],
      "stateMutability": "view",
      "type": "function"
    },
    {
      "inputs": [
        {
          "internalType": "uint256",
          "name": "tokenId",
          "type": "uint256"
        }
      ],
      "name": "contentOf",
      "outputs": [
        {
          "internalType": "uint256",
          "name": "",
          "type": "uint256"
        }
      ],
      "stateMutability": "view",
      "type": "function"
    },
    {
      "inputs": [
        {
          "internalType": "uint256",
          "name": "contentId",
          "type": "uint256"
        }
      ],
      "name": "contentURI",
      "outputs": [
        {
          "internalType": "string",
          "name": "",
          "type": "string"
        }
      ],
      "stateMutability": "view",
      "type": "function"
    },
    {
      "inputs": [
        {
          "internalType": "uint256",
          "name": "tokenId",
          "type": "uint256"
        }
      ],
      "name": "getApproved",
      "outputs": [
        {
          "internalType": "address",
          "name": "",
          "type": "address"
        }
      ],
      "stateMutability": "view",
      "type": "function"
    },
    {
      "inputs": [
        {
          "internalType": "address",
          "name": "account",
          "type": "address"
        },
        {
          "internalType": "uint256",
          "name": "contentId",
          "type": "uint256"
        }
      ],
      "name": "hasOwnership",
      "outputs": [
        {
          "internalType": "bool",
          "name": "",
          "type": "bool"
        }
      ],
      "stateMutability": "view",
      "type": "function"
    },
    {
      "inputs": [
        {
          "internalType": "uint256",
          "name": "contentId",
          "type": "uint256"
        }
      ],
      "name": "hashOf",
      "outputs": [
        {
          "internalType": "string",
          "name": "",
          "type": "string"
        }
      ],
      "stateMutability": "view",
      "type": "function"
    },
    {
      "inputs": [
        {
          "internalType": "uint256",
          "name": "contentId",
          "type": "uint256"
        }
      ],
      "name": "ipfsPathOf",
      "outputs": [
        {
          "internalType": "string",
          "name": "",
          "type": "string"
        }
      ],
      "stateMutability": "view",
      "type": "function"
    },
    {
      "inputs": [
        {
          "internalType": "address",
          "name": "owner",
          "type": "address"
        },
        {
          "internalType": "address",
          "name": "operator",
          "type": "address"
        }
      ],
      "name": "isApprovedForAll",
      "outputs": [
        {
          "internalType": "bool",
          "name": "",
          "type": "bool"
        }
      ],
      "stateMutability": "view",
      "type": "function"
    },
    {
      "inputs": [
        {
          "internalType": "uint256",
          "name": "tokenId",
          "type": "uint256"
        },
        {
          "internalType": "address",
          "name": "to",
          "type": "address"
        }
      ],
      "name": "lend",
      "outputs": [],
      "stateMutability": "nonpayable",
      "type": "function"
    },
    {
      "inputs": [
        {
          "internalType": "uint256",
          "name": "contentId",
          "type": "uint256"
        },
        {
          "internalType": "address",
          "name": "to",
          "type": "address"
        }
      ],
      "name": "mint",
      "outputs": [],
      "stateMutability": "payable",
      "type": "function"
    },
    {
      "inputs": [],
      "name": "name",
      "outputs": [
        {
          "internalType": "string",
          "name": "",
          "type": "string"
        }
      ],
      "stateMutability": "view",
      "type": "function"
    },
    {
      "inputs": [],
      "name": "nextContentId",
      "outputs": [
        {
          "internalType": "uint256",
          "name": "",
          "type": "uint256"
        }
      ],
      "stateMutability": "view",
      "type": "function"
    },
    {
      "inputs": [],
      "name": "nextTokenId",
      "outputs": [
        {
          "internalType": "uint256",
          "name": "",
          "type": "uint256"
        }
      ],
      "stateMutability": "view",
      "type": "function"
    },
    {
      "inputs": [],
      "name": "owner",
      "outputs": [
        {
          "internalType": "address",
          "name": "",
          "type": "address"
        }
      ],
      "stateMutability": "view",
      "type": "function"
    },
    {
      "inputs": [
        {
          "internalType": "uint256",
          "name": "tokenId",
          "type": "uint256"
        }
      ],
      "name": "ownerOf",
      "outputs": [
        {
          "internalType": "address",
          "name": "",
          "type": "address"
        }
      ],
      "stateMutability": "view",
      "type": "function"
    },
    {
      "inputs": [
        {
          "internalType": "uint256",
          "name": "contentId",
          "type": "uint256"
        }
      ],
      "name": "priceOf",
      "outputs": [
        {
          "internalType": "uint256",
          "name": "",
          "type": "uint256"
        }
      ],
      "stateMutability": "view",
      "type": "function"
    },
    {
      "inputs": [
        {
          "internalType": "uint256",
          "name": "price",
          "type": "uint256"
        },
        {
          "internalType": "uint256",
          "name": "royalty",
          "type": "uint256"
        },
        {
          "internalType": "address",
          "name": "royaltyReceiver",
          "type": "address"
        },
        {
          "internalType": "string",
          "name": "hash",
          "type": "string"
        },
        {
          "internalType": "string",
          "name": "path",
          "type": "string"
        }
      ],
      "name": "register",
      "outputs": [],
      "stateMutability": "nonpayable",
      "type": "function"
    },
    {
      "inputs": [
        {
          "internalType": "uint256",
          "name": "price",
          "type": "uint256"
        },
        {
          "internalType": "uint256",
          "name": "royalty",
          "type": "uint256"
        }
      ],
      "name": "register",
      "outputs": [],
      "stateMutability": "nonpayable",
      "type": "function"
    },
    {
      "inputs": [],
      "name": "renounceOwnership",
      "outputs": [],
      "stateMutability": "nonpayable",
      "type": "function"
    },
    {
      "inputs": [
        {
          "internalType": "uint256",
          "name": "tokenId",
          "type": "uint256"
        },
        {
          "internalType": "uint256",
          "name": "value",
          "type": "uint256"
        }
      ],
      "name": "royaltyInfo",
      "outputs": [
        {
          "internalType": "address",
          "name": "receiver",
          "type": "address"
        },
        {
          "internalType": "uint256",
          "name": "royaltyAmount",
          "type": "uint256"
        }
      ],
      "stateMutability": "view",
      "type": "function"
    },
    {
      "inputs": [
        {
          "internalType": "uint256",
          "name": "contentId",
          "type": "uint256"
        }
      ],
      "name": "royaltyOf",
      "outputs": [
        {
          "internalType": "uint256",
          "name": "",
          "type": "uint256"
        }
      ],
      "stateMutability": "view",
      "type": "function"
    },
    {
      "inputs": [
        {
          "internalType": "uint256",
          "name": "contentId",
          "type": "uint256"
        }
      ],
      "name": "royaltyReceiverOf",
      "outputs": [
        {
          "internalType": "address",
          "name": "",
          "type": "address"
        }
      ],
      "stateMutability": "view",
      "type": "function"
    },
    {
      "inputs": [
        {
          "internalType": "address",
          "name": "from",
          "type": "address"
        },
        {
          "internalType": "address",
          "name": "to",
          "type": "address"
        },
        {
          "internalType": "uint256",
          "name": "tokenId",
          "type": "uint256"
        }
      ],
      "name": "safeTransferFrom",
      "outputs": [],
      "stateMutability": "nonpayable",
      "type": "function"
    },
    {
      "inputs": [
        {
          "internalType": "address",
          "name": "from",
          "type": "address"
        },
        {
          "internalType": "address",
          "name": "to",
          "type": "address"
        },
        {
          "internalType": "uint256",
          "name": "tokenId",
          "type": "uint256"
        },
        {
          "internalType": "bytes",
          "name": "_data",
          "type": "bytes"
        }
      ],
      "name": "safeTransferFrom",
      "outputs": [],
      "stateMutability": "nonpayable",
      "type": "function"
    },
    {
      "inputs": [
        {
          "internalType": "address",
          "name": "operator",
          "type": "address"
        },
        {
          "internalType": "bool",
          "name": "approved",
          "type": "bool"
        }
      ],
      "name": "setApprovalForAll",
      "outputs": [],
      "stateMutability": "nonpayable",
      "type": "function"
    },
    {
      "inputs": [
        {
          "internalType": "string",
          "name": "baseURI_",
          "type": "string"
        }
      ],
      "name": "setBaseURI",
      "outputs": [],
      "stateMutability": "nonpayable",
      "type": "function"
    },
    {
      "inputs": [
        {
          "internalType": "uint256",
          "name": "contentId",
          "type": "uint256"
        },
        {
          "internalType": "string",
          "name": "hash",
          "type": "string"
        }
      ],
      "name": "setContentHash",
      "outputs": [],
      "stateMutability": "nonpayable",
      "type": "function"
    },
    {
      "inputs": [
        {
          "internalType": "uint256",
          "name": "contentId",
          "type": "uint256"
        },
        {
          "internalType": "string",
          "name": "path",
          "type": "string"
        }
      ],
      "name": "setIpfsPath",
      "outputs": [],
      "stateMutability": "nonpayable",
      "type": "function"
    },
    {
      "inputs": [
        {
          "internalType": "uint256",
          "name": "contentId",
          "type": "uint256"
        },
        {
          "internalType": "uint256",
          "name": "price",
          "type": "uint256"
        }
      ],
      "name": "setPrice",
      "outputs": [],
      "stateMutability": "nonpayable",
      "type": "function"
    },
    {
      "inputs": [
        {
          "internalType": "uint256",
          "name": "contentId",
          "type": "uint256"
        },
        {
          "internalType": "uint256",
          "name": "royalty",
          "type": "uint256"
        },
        {
          "internalType": "address",
          "name": "receiver",
          "type": "address"
        }
      ],
      "name": "setRoyalty",
      "outputs": [],
      "stateMutability": "nonpayable",
      "type": "function"
    },
    {
      "inputs": [
        {
          "internalType": "bytes4",
          "name": "interfaceId",
          "type": "bytes4"
        }
      ],
      "name": "supportsInterface",
      "outputs": [
        {
          "internalType": "bool",
          "name": "",
          "type": "bool"
        }
      ],
      "stateMutability": "view",
      "type": "function"
    },
    {
      "inputs": [],
      "name": "symbol",
      "outputs": [
        {
          "internalType": "string",
          "name": "",
          "type": "string"
        }
      ],
      "stateMutability": "view",
      "type": "function"
    },
    {
      "inputs": [
        {
          "internalType": "uint256",
          "name": "tokenId",
          "type": "uint256"
        }
      ],
      "name": "tokenURI",
      "outputs": [
        {
          "internalType": "string",
          "name": "",
          "type": "string"
        }
      ],
      "stateMutability": "view",
      "type": "function"
    },
    {
      "inputs": [
        {
          "internalType": "address",
          "name": "from",
          "type": "address"
        },
        {
          "internalType": "address",
          "name": "to",
          "type": "address"
        },
        {
          "internalType": "uint256",
          "name": "tokenId",
          "type": "uint256"
        }
      ],
      "name": "transferFrom",
      "outputs": [],
      "stateMutability": "nonpayable",
      "type": "function"
    },
    {
      "inputs": [
        {
          "internalType": "address",
          "name": "newOwner",
          "type": "address"
        }
      ],
      "name": "transferOwnership",
      "outputs": [],
      "stateMutability": "nonpayable",
      "type": "function"
    }
  ],
  "transactionHash": "0x5b99fa00de6ad5a88908f819fc6422e0d14a8ae01c0a20af46ae91a06238fe98",
  "args": [
    "OwnershipToken",
    "OWT"
  ],
  "solcInputHash": "e0e8dbfbaa9c32b1a7abe72c602ca6a7",
  "bytecode": "0x60806040523480156200001157600080fd5b5060405162002d2138038062002d2183398101604081905262000034916200022f565b8151829082906200004d906000906020850190620000de565b50805162000063906001906020840190620000de565b505050620000806200007a6200008860201b60201c565b6200008c565b5050620002e9565b3390565b600680546001600160a01b038381166001600160a01b0319831681179093556040519116919082907f8be0079c531659141344cd1fd0a4f28419497f9722a3daafe3b4186f6b6457e090600090a35050565b828054620000ec9062000296565b90600052602060002090601f0160209004810192826200011057600085556200015b565b82601f106200012b57805160ff19168380011785556200015b565b828001600101855582156200015b579182015b828111156200015b5782518255916020019190600101906200013e565b50620001699291506200016d565b5090565b5b808211156200016957600081556001016200016e565b600082601f83011262000195578081fd5b81516001600160401b0380821115620001b257620001b2620002d3565b6040516020601f8401601f1916820181018381118382101715620001da57620001da620002d3565b6040528382528584018101871015620001f1578485fd5b8492505b83831015620002145785830181015182840182015291820191620001f5565b838311156200022557848185840101525b5095945050505050565b6000806040838503121562000242578182fd5b82516001600160401b038082111562000259578384fd5b620002678683870162000184565b935060208501519150808211156200027d578283fd5b506200028c8582860162000184565b9150509250929050565b600281046001821680620002ab57607f821691505b60208210811415620002cd57634e487b7160e01b600052602260045260246000fd5b50919050565b634e487b7160e01b600052604160045260246000fd5b612a2880620002f96000396000f3fe6080604052600436106101e55760003560e01c80637e551b7511610103578063b9186d7d1161009b578063b9186d7d1461055d578063c2020eb01461057d578063c86fc7f21461059d578063c87b56dd146105bd578063d26509b1146105dd578063d66d6c10146105fd578063d8d7a7ce1461061d578063e985e9c51461063d578063f2fde38b1461065d578063f7d975771461067d576101e5565b80637e551b75146104605780638da5cb5b1461048057806394bf804d1461049557806395d89b41146104a8578063a22cb465146104bd578063a3a23d62146104dd578063aa2c8b69146104fd578063b18847441461051d578063b88d4fde1461053d576101e5565b80632a55205a116101815780632a55205a1461032857806342842e0e1461035657806355f804b314610376578063571733ab146103965780635b0927bc146103b65780636352211e146103d65780636e667c35146103f657806370a0823114610416578063715018a61461043657806375794a3c1461044b576101e5565b806301ffc9a7146101ea57806306fdde0314610220578063081812fc14610242578063095ea7b31461026f5780630a248d7f146102915780630d449db0146102b357806323b872dd146102c857806323f76e15146102e857806327427e3114610308575b600080fd5b3480156101f657600080fd5b5061020a610205366004611fa3565b61069d565b60405161021791906122a9565b60405180910390f35b34801561022c57600080fd5b506102356106cb565b60405161021791906122b4565b34801561024e57600080fd5b5061026261025d36600461200d565b61075d565b604051610217919061223f565b34801561027b57600080fd5b5061028f61028a366004611f7a565b6107a9565b005b34801561029d57600080fd5b506102a6610841565b604051610217919061287d565b3480156102bf57600080fd5b50610235610847565b3480156102d457600080fd5b5061028f6102e3366004611e8d565b6108d5565b3480156102f457600080fd5b5061020a610303366004611f7a565b61090d565b34801561031457600080fd5b506102a661032336600461200d565b610980565b34801561033457600080fd5b5061034861034336600461208b565b6109c6565b604051610217929190612290565b34801561036257600080fd5b5061028f610371366004611e8d565b610a1c565b34801561038257600080fd5b5061028f610391366004611fdb565b610a37565b3480156103a257600080fd5b506102626103b136600461200d565b610a8d565b3480156103c257600080fd5b506102626103d136600461200d565b610acc565b3480156103e257600080fd5b506102626103f136600461200d565b610b0b565b34801561040257600080fd5b5061023561041136600461200d565b610b40565b34801561042257600080fd5b506102a6610431366004611e41565b610be2565b34801561044257600080fd5b5061028f610c26565b34801561045757600080fd5b506102a6610c71565b34801561046c57600080fd5b5061023561047b36600461200d565b610c77565b34801561048c57600080fd5b50610262610d38565b61028f6104a3366004612025565b610d47565b3480156104b457600080fd5b50610235610e46565b3480156104c957600080fd5b5061028f6104d8366004611f40565b610e55565b3480156104e957600080fd5b5061028f6104f8366004612047565b610f23565b34801561050957600080fd5b5061023561051836600461200d565b610fb8565b34801561052957600080fd5b5061028f610538366004612025565b610fd5565b34801561054957600080fd5b5061028f610558366004611ec8565b6110f1565b34801561056957600080fd5b506102a661057836600461200d565b611130565b34801561058957600080fd5b5061028f6105983660046120e0565b611166565b3480156105a957600080fd5b5061028f6105b83660046120ac565b611375565b3480156105c957600080fd5b506102356105d836600461200d565b61145a565b3480156105e957600080fd5b506102a66105f836600461200d565b6114d7565b34801561060957600080fd5b5061028f61061836600461208b565b61150d565b34801561062957600080fd5b5061028f610638366004612047565b611538565b34801561064957600080fd5b5061020a610658366004611e5b565b6115be565b34801561066957600080fd5b5061028f610678366004611e41565b6115ec565b34801561068957600080fd5b5061028f61069836600461208b565b61165d565b60006106a8826116d6565b806106c357506001600160e01b0319821663152a902d60e11b145b90505b919050565b6060600080546106da9061295a565b80601f01602080910402602001604051908101604052809291908181526020018280546107069061295a565b80156107535780601f1061072857610100808354040283529160200191610753565b820191906000526020600020905b81548152906001019060200180831161073657829003601f168201915b5050505050905090565b600061076882611716565b61078d5760405162461bcd60e51b8152600401610784906126d2565b60405180910390fd5b506000908152600460205260409020546001600160a01b031690565b60006107b482610b0b565b9050806001600160a01b0316836001600160a01b031614156107e85760405162461bcd60e51b8152600401610784906127eb565b806001600160a01b03166107fa611733565b6001600160a01b03161480610816575061081681610658611733565b6108325760405162461bcd60e51b815260040161078490612526565b61083c8383611737565b505050565b60085481565b600780546108549061295a565b80601f01602080910402602001604051908101604052809291908181526020018280546108809061295a565b80156108cd5780601f106108a2576101008083540402835291602001916108cd565b820191906000526020600020905b8154815290600101906020018083116108b057829003601f168201915b505050505081565b6108e66108e0611733565b826117a5565b6109025760405162461bcd60e51b81526004016107849061282c565b61083c83838361182a565b600060085482106109305760405162461bcd60e51b8152600401610784906123ff565b60008281526012602090815260408083206001600160a01b038716845290915290205415158061097957506000828152600a60205260409020546001600160a01b038481169116145b9392505050565b60008061098c83610b0b565b6001600160a01b031614156109b35760405162461bcd60e51b8152600401610784906122c7565b506000908152600b602052604090205490565b6000828152600b60209081526040808320548084526010835281842054600f9093529083205483926001600160a01b03169061271090610a0690876128e1565b610a1091906128c1565b92509250509250929050565b61083c838383604051806020016040528060008152506110f1565b610a3f611733565b6001600160a01b0316610a50610d38565b6001600160a01b031614610a765760405162461bcd60e51b81526004016107849061271e565b8051610a89906007906020840190611d03565b5050565b60006008548210610ab05760405162461bcd60e51b8152600401610784906123ff565b506000908152600a60205260409020546001600160a01b031690565b60006008548210610aef5760405162461bcd60e51b8152600401610784906123ff565b506000908152601060205260409020546001600160a01b031690565b6000818152600260205260408120546001600160a01b0316806106c35760405162461bcd60e51b815260040161078490612625565b60606008548210610b635760405162461bcd60e51b8152600401610784906123ff565b6000610b6d611957565b6000848152600d6020526040812080549293509091610b8b9061295a565b905011610ba75760405180602001604052806000815250610979565b80600d6000858152602001908152602001600020604051602001610bcc929190612190565b6040516020818303038152906040529392505050565b60006001600160a01b038216610c0a5760405162461bcd60e51b8152600401610784906125db565b506001600160a01b031660009081526003602052604090205490565b610c2e611733565b6001600160a01b0316610c3f610d38565b6001600160a01b031614610c655760405162461bcd60e51b81526004016107849061271e565b610c6f6000611966565b565b60095481565b60606008548210610c9a5760405162461bcd60e51b8152600401610784906123ff565b6000828152600c602052604090208054610cb39061295a565b80601f0160208091040260200160405190810160405280929190818152602001828054610cdf9061295a565b8015610d2c5780601f10610d0157610100808354040283529160200191610d2c565b820191906000526020600020905b815481529060010190602001808311610d0f57829003601f168201915b50505050509050919050565b6006546001600160a01b031690565b6008548210610d685760405162461bcd60e51b8152600401610784906123ff565b6000828152600a6020908152604080832054600e909252909120546001600160a01b0391909116331490341480610d9c5750805b610db85760405162461bcd60e51b81526004016107849061257e565b80610e04576000838152600a60205260408082205490516001600160a01b03909116913480156108fc02929091818181858888f19350505050158015610e02573d6000803e3d6000fd5b505b6009546000818152600b6020908152604080832087905580519182019052908152610e3290849083906119b8565b610e3d8160016128a9565b60095550505050565b6060600180546106da9061295a565b610e5d611733565b6001600160a01b0316826001600160a01b03161415610e8e5760405162461bcd60e51b8152600401610784906124a7565b8060056000610e9b611733565b6001600160a01b03908116825260208083019390935260409182016000908120918716808252919093529120805460ff191692151592909217909155610edf611733565b6001600160a01b03167f17307eab39ab6107e8899845ad3d59bd9653f200f220920489ca2b5937696c3183604051610f1791906122a9565b60405180910390a35050565b6000828152600a60205260409020546001600160a01b03163314610f595760405162461bcd60e51b8152600401610784906123cf565b6008546000908152600c602090815260409091208251610f7b92840190611d03565b50817f161649bd87a8987bc5551a607d16bb9df1239cac6bdc4819e9ca3cebcb539d6c82604051610fac91906122b4565b60405180910390a25050565b6000818152600d60205260409020805460609190610cb39061295a565b33610fdf83610b0b565b6001600160a01b0316146110055760405162461bcd60e51b81526004016107849061266e565b6000828152601160205260409020546001600160a01b038281169116141561103f5760405162461bcd60e51b8152600401610784906122f2565b6000828152600b602090815260408083205483526012825280832085845260118352818420546001600160a01b03168452909152812080549161108183612943565b90915550506000828152600b60209081526040808320548352601282528083206001600160a01b038516845290915281208054916110be83612995565b909155505060009182526011602052604090912080546001600160a01b0319166001600160a01b03909216919091179055565b6111026110fc611733565b836117a5565b61111e5760405162461bcd60e51b81526004016107849061282c565b61112a848484846119eb565b50505050565b600060085482106111535760405162461bcd60e51b8152600401610784906123ff565b506000908152600e602052604090205490565b600880546000908152600a602052604080822080546001600160a01b03191633908117909155925490519092917e7dc6ab80cc84c043b7b8d4fcafc802187470087f7ea7fccd2e17aecd0256a191a3841561120c57600880546000908152600e602052604090819020879055905490517ff9317dc3bc6dda0e00e43855c2c30847aeafb8dcea9d2ce86e9ce7a83d549f019061120390889061287d565b60405180910390a25b831561128c57600880546000908152600f602090815260408083208890558354835260109091529081902080546001600160a01b0319166001600160a01b038716179055905490517f80c58f3fa9ce4525947645c63a36a003a3e258275f8a640c0deabc394272c55d906112839087908790612886565b60405180910390a25b8151156112f1576008546000908152600c6020908152604090912083516112b592850190611d03565b506008547f161649bd87a8987bc5551a607d16bb9df1239cac6bdc4819e9ca3cebcb539d6c836040516112e891906122b4565b60405180910390a25b805115611356576008546000908152600d60209081526040909120825161131a92840190611d03565b506008547fccb689e91176be37a21d8a392dde3eed40c4e8bf255356c3725be407d722a1e18260405161134d91906122b4565b60405180910390a25b60016008600082825461136991906128a9565b90915550505050505050565b6000838152600a60205260409020546001600160a01b031633146113ab5760405162461bcd60e51b8152600401610784906123cf565b6000838152600f602052604090205482146113d2576000838152600f602052604090208290555b6000838152601060205260409020546001600160a01b0382811691161461141b57600083815260106020526040902080546001600160a01b0319166001600160a01b0383161790555b827f80c58f3fa9ce4525947645c63a36a003a3e258275f8a640c0deabc394272c55d838360405161144d929190612886565b60405180910390a2505050565b606061146582611716565b6114815760405162461bcd60e51b81526004016107849061279c565b600061148b611957565b905060008151116114ab5760405180602001604052806000815250610979565b6000838152600b60209081526040808320548352600d8252918290209151610bcc928492909101612190565b600060085482106114fa5760405162461bcd60e51b8152600401610784906123ff565b506000908152600f602052604090205490565b610a898282336040518060200160405280600081525060405180602001604052806000815250611166565b6000828152600a60205260409020546001600160a01b0316331461156e5760405162461bcd60e51b8152600401610784906123cf565b6000828152600d60209081526040909120825161158d92840190611d03565b50817fccb689e91176be37a21d8a392dde3eed40c4e8bf255356c3725be407d722a1e182604051610fac91906122b4565b6001600160a01b03918216600090815260056020908152604080832093909416825291909152205460ff1690565b6115f4611733565b6001600160a01b0316611605610d38565b6001600160a01b03161461162b5760405162461bcd60e51b81526004016107849061271e565b6001600160a01b0381166116515760405162461bcd60e51b815260040161078490612389565b61165a81611966565b50565b6000828152600a60205260409020546001600160a01b031633146116935760405162461bcd60e51b8152600401610784906123cf565b6000828152600e6020526040908190208290555182907ff9317dc3bc6dda0e00e43855c2c30847aeafb8dcea9d2ce86e9ce7a83d549f0190610fac90849061287d565b60006001600160e01b031982166380ac58cd60e01b148061170757506001600160e01b03198216635b5e139f60e01b145b806106c357506106c382611a1e565b6000908152600260205260409020546001600160a01b0316151590565b3390565b600081815260046020526040902080546001600160a01b0319166001600160a01b038416908117909155819061176c82610b0b565b6001600160a01b03167f8c5be1e5ebec7d5bd14f71427d1e84f3dd0314c0f7b2291e5b200ac8c7c3b92560405160405180910390a45050565b60006117b082611716565b6117cc5760405162461bcd60e51b8152600401610784906124da565b60006117d783610b0b565b9050806001600160a01b0316846001600160a01b031614806118125750836001600160a01b03166118078461075d565b6001600160a01b0316145b80611822575061182281856115be565b949350505050565b826001600160a01b031661183d82610b0b565b6001600160a01b0316146118635760405162461bcd60e51b815260040161078490612753565b6001600160a01b0382166118895760405162461bcd60e51b815260040161078490612463565b611894838383611a37565b61189f600082611737565b6001600160a01b03831660009081526003602052604081208054600192906118c8908490612900565b90915550506001600160a01b03821660009081526003602052604081208054600192906118f69084906128a9565b909155505060008181526002602052604080822080546001600160a01b0319166001600160a01b0386811691821790925591518493918716917fddf252ad1be2c89b69c2b068fc378daa952ba7f163c4a11628f55a4df523b3ef91a4505050565b6060600780546106da9061295a565b600680546001600160a01b038381166001600160a01b0319831681179093556040519116919082907f8be0079c531659141344cd1fd0a4f28419497f9722a3daafe3b4186f6b6457e090600090a35050565b6119c28383611b03565b6119cf6000848484611be2565b61083c5760405162461bcd60e51b815260040161078490612337565b6119f684848461182a565b611a0284848484611be2565b61112a5760405162461bcd60e51b815260040161078490612337565b6001600160e01b031981166301ffc9a760e01b14919050565b6001600160a01b03831615611a93576000818152600b602090815260408083205483526012825280832084845260118352818420546001600160a01b031684529091528120805460019290611a8d908490612900565b90915550505b6001600160a01b0382161561083c57600081815260116020908152604080832080546001600160a01b0319166001600160a01b038716908117909155600b8352818420548452601283528184209084529091528120805460019290611af99084906128a9565b9091555050505050565b6001600160a01b038216611b295760405162461bcd60e51b81526004016107849061269d565b611b3281611716565b15611b4f5760405162461bcd60e51b81526004016107849061242c565b611b5b60008383611a37565b6001600160a01b0382166000908152600360205260408120805460019290611b849084906128a9565b909155505060008181526002602052604080822080546001600160a01b0319166001600160a01b03861690811790915590518392907fddf252ad1be2c89b69c2b068fc378daa952ba7f163c4a11628f55a4df523b3ef908290a45050565b6000611bf6846001600160a01b0316611cfd565b15611cf257836001600160a01b031663150b7a02611c12611733565b8786866040518563ffffffff1660e01b8152600401611c349493929190612253565b602060405180830381600087803b158015611c4e57600080fd5b505af1925050508015611c7e575060408051601f3d908101601f19168201909252611c7b91810190611fbf565b60015b611cd8573d808015611cac576040519150601f19603f3d011682016040523d82523d6000602084013e611cb1565b606091505b508051611cd05760405162461bcd60e51b815260040161078490612337565b805181602001fd5b6001600160e01b031916630a85bd0160e11b149050611822565b506001949350505050565b3b151590565b828054611d0f9061295a565b90600052602060002090601f016020900481019282611d315760008555611d77565b82601f10611d4a57805160ff1916838001178555611d77565b82800160010185558215611d77579182015b82811115611d77578251825591602001919060010190611d5c565b50611d83929150611d87565b5090565b5b80821115611d835760008155600101611d88565b60006001600160401b0380841115611db657611db66129c6565b604051601f8501601f191681016020018281118282101715611dda57611dda6129c6565b604052848152915081838501861015611df257600080fd5b8484602083013760006020868301015250509392505050565b80356001600160a01b03811681146106c657600080fd5b600082601f830112611e32578081fd5b61097983833560208501611d9c565b600060208284031215611e52578081fd5b61097982611e0b565b60008060408385031215611e6d578081fd5b611e7683611e0b565b9150611e8460208401611e0b565b90509250929050565b600080600060608486031215611ea1578081fd5b611eaa84611e0b565b9250611eb860208501611e0b565b9150604084013590509250925092565b60008060008060808587031215611edd578081fd5b611ee685611e0b565b9350611ef460208601611e0b565b92506040850135915060608501356001600160401b03811115611f15578182fd5b8501601f81018713611f25578182fd5b611f3487823560208401611d9c565b91505092959194509250565b60008060408385031215611f52578182fd5b611f5b83611e0b565b915060208301358015158114611f6f578182fd5b809150509250929050565b60008060408385031215611f8c578182fd5b611f9583611e0b565b946020939093013593505050565b600060208284031215611fb4578081fd5b8135610979816129dc565b600060208284031215611fd0578081fd5b8151610979816129dc565b600060208284031215611fec578081fd5b81356001600160401b03811115612001578182fd5b61182284828501611e22565b60006020828403121561201e578081fd5b5035919050565b60008060408385031215612037578182fd5b82359150611e8460208401611e0b565b60008060408385031215612059578182fd5b8235915060208301356001600160401b03811115612075578182fd5b61208185828601611e22565b9150509250929050565b6000806040838503121561209d578182fd5b50508035926020909101359150565b6000806000606084860312156120c0578283fd5b83359250602084013591506120d760408501611e0b565b90509250925092565b600080600080600060a086880312156120f7578283fd5b853594506020860135935061210e60408701611e0b565b925060608601356001600160401b0380821115612129578283fd5b61213589838a01611e22565b9350608088013591508082111561214a578283fd5b5061215788828901611e22565b9150509295509295909350565b6000815180845261217c816020860160208601612917565b601f01601f19169290920160200192915050565b6000835160206121a38285838901612917565b8454918401918390600281046001808316806121c057607f831692505b8583108114156121de57634e487b7160e01b88526022600452602488fd5b8080156121f257600181146122035761222f565b60ff1985168852838801955061222f565b61220c8b61289d565b895b858110156122275781548a82015290840190880161220e565b505083880195505b50939a9950505050505050505050565b6001600160a01b0391909116815260200190565b6001600160a01b038581168252841660208201526040810183905260806060820181905260009061228690830184612164565b9695505050505050565b6001600160a01b03929092168252602082015260400190565b901515815260200190565b6000602082526109796020830184612164565b6020808252601190820152701d1bdad95b881b9bdd08195e1a5cdd1959607a1b604082015260600190565b60208082526025908201527f746865206163636f756e7420616c726561647920706f737365737320746865206040820152643a37b5b2b760d91b606082015260800190565b60208082526032908201527f4552433732313a207472616e7366657220746f206e6f6e20455243373231526560408201527131b2b4bb32b91034b6b83632b6b2b73a32b960711b606082015260800190565b60208082526026908201527f4f776e61626c653a206e6577206f776e657220697320746865207a65726f206160408201526564647265737360d01b606082015260800190565b6020808252601690820152753cb7ba9030b932903737ba103a34329030baba3437b960511b604082015260600190565b60208082526013908201527218dbdb9d195b9d081b9bdd08195e1a5cdd1959606a1b604082015260600190565b6020808252601c908201527f4552433732313a20746f6b656e20616c7265616479206d696e74656400000000604082015260600190565b60208082526024908201527f4552433732313a207472616e7366657220746f20746865207a65726f206164646040820152637265737360e01b606082015260800190565b60208082526019908201527822a9219b99189d1030b8383937bb32903a379031b0b63632b960391b604082015260600190565b6020808252602c908201527f4552433732313a206f70657261746f7220717565727920666f72206e6f6e657860408201526b34b9ba32b73a103a37b5b2b760a11b606082015260800190565b60208082526038908201527f4552433732313a20617070726f76652063616c6c6572206973206e6f74206f776040820152771b995c881b9bdc88185c1c1c9bdd995908199bdc88185b1b60421b606082015260800190565b6020808252603e908201527f796f7520617265206e6f742074686520617574686f7220616e64206d73672e7660408201527f616c7565206973206e6f7420657175616c20746f207468652070726963650000606082015260800190565b6020808252602a908201527f4552433732313a2062616c616e636520717565727920666f7220746865207a65604082015269726f206164647265737360b01b606082015260800190565b60208082526029908201527f4552433732313a206f776e657220717565727920666f72206e6f6e657869737460408201526832b73a103a37b5b2b760b91b606082015260800190565b6020808252601590820152743cb7ba9030b932903737ba103a34329037bbb732b960591b604082015260600190565b6020808252818101527f4552433732313a206d696e7420746f20746865207a65726f2061646472657373604082015260600190565b6020808252602c908201527f4552433732313a20617070726f76656420717565727920666f72206e6f6e657860408201526b34b9ba32b73a103a37b5b2b760a11b606082015260800190565b6020808252818101527f4f776e61626c653a2063616c6c6572206973206e6f7420746865206f776e6572604082015260600190565b60208082526029908201527f4552433732313a207472616e73666572206f6620746f6b656e2074686174206960408201526839903737ba1037bbb760b91b606082015260800190565b6020808252602f908201527f4552433732314d657461646174613a2055524920717565727920666f72206e6f60408201526e3732bc34b9ba32b73a103a37b5b2b760891b606082015260800190565b60208082526021908201527f4552433732313a20617070726f76616c20746f2063757272656e74206f776e656040820152603960f91b606082015260800190565b60208082526031908201527f4552433732313a207472616e736665722063616c6c6572206973206e6f74206f6040820152701ddb995c881b9bdc88185c1c1c9bdd9959607a1b606082015260800190565b90815260200190565b9182526001600160a01b0316602082015260400190565b60009081526020902090565b600082198211156128bc576128bc6129b0565b500190565b6000826128dc57634e487b7160e01b81526012600452602481fd5b500490565b60008160001904831182151516156128fb576128fb6129b0565b500290565b600082821015612912576129126129b0565b500390565b60005b8381101561293257818101518382015260200161291a565b8381111561112a5750506000910152565b600081612952576129526129b0565b506000190190565b60028104600182168061296e57607f821691505b6020821081141561298f57634e487b7160e01b600052602260045260246000fd5b50919050565b60006000198214156129a9576129a96129b0565b5060010190565b634e487b7160e01b600052601160045260246000fd5b634e487b7160e01b600052604160045260246000fd5b6001600160e01b03198116811461165a57600080fdfea2646970667358221220a7c29ba3cbbd7bb5091f0733217fcdde3180fe5ecb4db78cc906586bebddf5bf64736f6c63430008000033",
  "devdoc": {
    "kind": "dev",
    "methods": {
      "approve(address,uint256)": {
        "details": "See {IERC721-approve}."
      },
      "balanceOf(address)": {
        "details": "See {IERC721-balanceOf}."
      },
      "getApproved(uint256)": {
        "details": "See {IERC721-getApproved}."
      },
      "isApprovedForAll(address,address)": {
        "details": "See {IERC721-isApprovedForAll}."
      },
      "mint(uint256,address)": {
        "params": {
          "contentId": "an id of the content",
          "to": "the recipient of the token"
        }
      },
      "name()": {
        "details": "See {IERC721Metadata-name}."
      },
      "owner()": {
        "details": "Returns the address of the current owner."
      },
      "ownerOf(uint256)": {
        "details": "See {IERC721-ownerOf}."
      },
      "renounceOwnership()": {
        "details": "Leaves the contract without owner. It will not be possible to call `onlyOwner` functions anymore. Can only be called by the current owner. NOTE: Renouncing ownership will leave the contract without an owner, thereby removing any functionality that is only available to the owner."
      },
      "safeTransferFrom(address,address,uint256)": {
        "details": "See {IERC721-safeTransferFrom}."
      },
      "safeTransferFrom(address,address,uint256,bytes)": {
        "details": "See {IERC721-safeTransferFrom}."
      },
      "setApprovalForAll(address,bool)": {
        "details": "See {IERC721-setApprovalForAll}."
      },
      "supportsInterface(bytes4)": {
        "details": "See {IERC165-supportsInterface}."
      },
      "symbol()": {
        "details": "See {IERC721Metadata-symbol}."
      },
      "tokenURI(uint256)": {
        "details": "See {IERC721Metadata-tokenURI}."
      },
      "transferFrom(address,address,uint256)": {
        "details": "See {IERC721-transferFrom}."
      },
      "transferOwnership(address)": {
        "details": "Transfers ownership of the contract to a new account (`newOwner`). Can only be called by the current owner."
      }
    },
    "version": 1
  },
  "userdoc": {
    "kind": "user",
    "methods": {
      "mint(uint256,address)": {
        "notice": "Mint one token to `to`"
      }
    },
    "version": 1
  },
  "storageLayout": {
    "storage": [
      {
        "astId": 824,
        "contract": "contracts/OwnershipNFT.sol:OwnershipNFT",
        "label": "_name",
        "offset": 0,
        "slot": "0",
        "type": "t_string_storage"
      },
      {
        "astId": 826,
        "contract": "contracts/OwnershipNFT.sol:OwnershipNFT",
        "label": "_symbol",
        "offset": 0,
        "slot": "1",
        "type": "t_string_storage"
      },
      {
        "astId": 830,
        "contract": "contracts/OwnershipNFT.sol:OwnershipNFT",
        "label": "_owners",
        "offset": 0,
        "slot": "2",
        "type": "t_mapping(t_uint256,t_address)"
      },
      {
        "astId": 834,
        "contract": "contracts/OwnershipNFT.sol:OwnershipNFT",
        "label": "_balances",
        "offset": 0,
        "slot": "3",
        "type": "t_mapping(t_address,t_uint256)"
      },
      {
        "astId": 838,
        "contract": "contracts/OwnershipNFT.sol:OwnershipNFT",
        "label": "_tokenApprovals",
        "offset": 0,
        "slot": "4",
        "type": "t_mapping(t_uint256,t_address)"
      },
      {
        "astId": 844,
        "contract": "contracts/OwnershipNFT.sol:OwnershipNFT",
        "label": "_operatorApprovals",
        "offset": 0,
        "slot": "5",
        "type": "t_mapping(t_address,t_mapping(t_address,t_bool))"
      },
      {
        "astId": 53,
        "contract": "contracts/OwnershipNFT.sol:OwnershipNFT",
        "label": "_owner",
        "offset": 0,
        "slot": "6",
        "type": "t_address"
      },
      {
        "astId": 3201,
        "contract": "contracts/OwnershipNFT.sol:OwnershipNFT",
        "label": "baseURIextended",
        "offset": 0,
        "slot": "7",
        "type": "t_string_storage"
      },
      {
        "astId": 3203,
        "contract": "contracts/OwnershipNFT.sol:OwnershipNFT",
        "label": "nextContentId",
        "offset": 0,
        "slot": "8",
        "type": "t_uint256"
      },
      {
        "astId": 3205,
        "contract": "contracts/OwnershipNFT.sol:OwnershipNFT",
        "label": "nextTokenId",
        "offset": 0,
        "slot": "9",
        "type": "t_uint256"
      },
      {
        "astId": 3209,
        "contract": "contracts/OwnershipNFT.sol:OwnershipNFT",
        "label": "_authors",
        "offset": 0,
        "slot": "10",
        "type": "t_mapping(t_uint256,t_address)"
      },
      {
        "astId": 3213,
        "contract": "contracts/OwnershipNFT.sol:OwnershipNFT",
        "label": "_contents",
        "offset": 0,
        "slot": "11",
        "type": "t_mapping(t_uint256,t_uint256)"
      },
      {
        "astId": 3217,
        "contract": "contracts/OwnershipNFT.sol:OwnershipNFT",
        "label": "_contentHashes",
        "offset": 0,
        "slot": "12",
        "type": "t_mapping(t_uint256,t_string_storage)"
      },
      {
        "astId": 3221,
        "contract": "contracts/OwnershipNFT.sol:OwnershipNFT",
        "label": "_ipfsPaths",
        "offset": 0,
        "slot": "13",
        "type": "t_mapping(t_uint256,t_string_storage)"
      },
      {
        "astId": 3225,
        "contract": "contracts/OwnershipNFT.sol:OwnershipNFT",
        "label": "_prices",
        "offset": 0,
        "slot": "14",
        "type": "t_mapping(t_uint256,t_uint256)"
      },
      {
        "astId": 3229,
        "contract": "contracts/OwnershipNFT.sol:OwnershipNFT",
        "label": "_royalties",
        "offset": 0,
        "slot": "15",
        "type": "t_mapping(t_uint256,t_uint256)"
      },
      {
        "astId": 3233,
        "contract": "contracts/OwnershipNFT.sol:OwnershipNFT",
        "label": "_receivers",
        "offset": 0,
        "slot": "16",
        "type": "t_mapping(t_uint256,t_address)"
      },
      {
        "astId": 3237,
        "contract": "contracts/OwnershipNFT.sol:OwnershipNFT",
        "label": "_possessors",
        "offset": 0,
        "slot": "17",
        "type": "t_mapping(t_uint256,t_address)"
      },
      {
        "astId": 3243,
        "contract": "contracts/OwnershipNFT.sol:OwnershipNFT",
        "label": "ownerships",
        "offset": 0,
        "slot": "18",
        "type": "t_mapping(t_uint256,t_mapping(t_address,t_uint256))"
      }
    ],
    "types": {
      "t_address": {
        "encoding": "inplace",
        "label": "address",
        "numberOfBytes": "20"
      },
      "t_bool": {
        "encoding": "inplace",
        "label": "bool",
        "numberOfBytes": "1"
      },
      "t_mapping(t_address,t_bool)": {
        "encoding": "mapping",
        "key": "t_address",
        "label": "mapping(address => bool)",
        "numberOfBytes": "32",
        "value": "t_bool"
      },
      "t_mapping(t_address,t_mapping(t_address,t_bool))": {
        "encoding": "mapping",
        "key": "t_address",
        "label": "mapping(address => mapping(address => bool))",
        "numberOfBytes": "32",
        "value": "t_mapping(t_address,t_bool)"
      },
      "t_mapping(t_address,t_uint256)": {
        "encoding": "mapping",
        "key": "t_address",
        "label": "mapping(address => uint256)",
        "numberOfBytes": "32",
        "value": "t_uint256"
      },
      "t_mapping(t_uint256,t_address)": {
        "encoding": "mapping",
        "key": "t_uint256",
        "label": "mapping(uint256 => address)",
        "numberOfBytes": "32",
        "value": "t_address"
      },
      "t_mapping(t_uint256,t_mapping(t_address,t_uint256))": {
        "encoding": "mapping",
        "key": "t_uint256",
        "label": "mapping(uint256 => mapping(address => uint256))",
        "numberOfBytes": "32",
        "value": "t_mapping(t_address,t_uint256)"
      },
      "t_mapping(t_uint256,t_string_storage)": {
        "encoding": "mapping",
        "key": "t_uint256",
        "label": "mapping(uint256 => string)",
        "numberOfBytes": "32",
        "value": "t_string_storage"
      },
      "t_mapping(t_uint256,t_uint256)": {
        "encoding": "mapping",
        "key": "t_uint256",
        "label": "mapping(uint256 => uint256)",
        "numberOfBytes": "32",
        "value": "t_uint256"
      },
      "t_string_storage": {
        "encoding": "bytes",
        "label": "string",
        "numberOfBytes": "32"
      },
      "t_uint256": {
        "encoding": "inplace",
        "label": "uint256",
        "numberOfBytes": "32"
      }
    }
  }
}